:020000040800F2
:10000000980D0020B1010008531D00089D1B000839
:10001000511D00088D050008312300080000000074
:10002000000000000000000000000000DD1E0008CD
:100030008F05000800000000551D0008791F00080A
:10004000CB010008CB010008CB010008CB01000860
:10005000CB010008CB01000891050008CB01000886
:10006000CB010008CB010008CB010008CB01000840
:10007000CB010008CB010008CB010008CB01000830
:10008000CB010008CB010008CB01000800000000F4
:10009000000000000000000000000000CB0100088C
:1000A000CB010008CB010008CB010008CB01000800
:1000B00019200008CB01000825200008CB0100080A
:1000C000CB010008CB010008CB010008CB010008E0
:1000D000CB010008CB010008CB01000800000000A4
:1000E0009D050008CB010008CB01000800000000BE
:1000F000000000000000000000000000CB0100082C
:1001000000000000CB010008CB010008CB01000873
:1001100000000000000000000000000000000000DF
:10012000CB010008CB010008CB010008CB0100087F
:10013000CB010008000000000000000000000000EB
:10014000000000000000000000000000CB010008DB
:10015000CB010008CB010008CB010008CB0100084F
:10016000CB010008CB0100080000000000000000E7
:10017000000000000000000000000000000000007F
:1001800000000000CB01000800000000000000009B
:10019000CB010008CB010008DFF810D000F09AF87E
:1001A000004800477D340008AFF30080980D002020
:1001B0000648804706480047FEE7FEE7FEE7FEE701
:1001C000FEE7FEE7FEE7FEE7FEE7FEE7FD1F0008AD
:1001D000990100082DE9F05F0546002092469B46F4
:1001E00088460646814640241BE02846414647464D
:1001F000224600F05FF853465A46C01A914110D388
:1002000011461846224600F046F82D1A67EB010801
:100210004F4622460120002100F03DF817EB00096F
:100220004E41201EA4F10104DFDC484631462A4637
:100230004346BDE8F09F40EA01039B0703D009E075
:1002400008C9121F08C0042AFAD203E011F8013BC2
:1002500000F8013B521EF9D27047D2B201E000F81B
:10026000012B491EFBD270470022F6E710B513465A
:100270000A4604461946FFF7F0FF204610BD10B5A8
:10028000044604E00B7800F8013B03B1491C521E00
:10029000F8D2204610BD202A04DB203A00FA02F1F1
:1002A000002070479140C2F1200320FA03F3194364
:1002B00090407047202A04DB203A21FA02F0002106
:1002C000704721FA02F3D040C2F120029140084366
:1002D00019467047064C074D06E0E06840F0010300
:1002E00094E8070098471034AC42F6D3FFF758FF64
:1002F000543700087437000870B50178042914D108
:10030000441C40783E2811D0FF2820D0184E0025EC
:10031000207836F83510884204D106EBC5004168D4
:10032000A01C88476D1C072DF2D370BDA51C114E73
:100330000024287836F83410884204D106EBC40033
:100340004168681C8847641C0A2CF2D370BDA51C48
:10035000094E0024288836F83410884204D106EB70
:10036000C4004168A81C8847641C2B2CF2D370BDC4
:1003700074350008AC350008FC35000800F000BCFE
:100380000D4910B50B4808600C4800240168491C51
:10039000016001290CD1084800F03CFF40B9064833
:1003A00001F0DAFC044801F067FC08B16FF00704C3
:1003B000204610BD00300140A8010020540000205C
:1003C00038B54FF48053009313460A460146002483
:1003D000034800F063FF00B1A41F204638BD0000B1
:1003E000A80100201CB500211E4802F0B1FC02F05B
:1003F0009FFE4FF4FA6000F00FFA0421012002F092
:10040000E3FB4FF47A7458B1322217A11E48FFF76C
:1004100036FF234632221C491C4801F05BFAFEE7F6
:1004200001F070FD02F0EFFA58B1322218A116481F
:10043000FFF725FF234632221349144801F04AFAF8
:10044000FEE719490822881ECDE90001831E00211C
:10045000012002F073F800F0ADF8BDE81C4001F097
:100460003FBD0000F90200084572726F722061748E
:1004700020506F776572204C6576656C20436F6EF7
:100480006669670D0A000000200000206801002056
:100490004572726F72206174204741545420696E16
:1004A00069740D0A000000000600002070B502F01B
:1004B00063FF074C1125207C28B1112805D099280D
:1004C00000D1207470BD00F005F8257470BD0000E7
:1004D000D400002000B51AA28FB007CA0CAB83E885
:1004E00007000021084602F08BFD142217A107A87F
:1004F000FFF7A1FE07A9122002F082FD0020039061
:10050000049005900CAA0B2106908DE80700034685
:100510004FF4A072A02102F081F860B1322210A144
:100520001748FFF7ACFE4FF47A733222144915488E
:1005300001F0D0F9FEE71449112008740FB000BD96
:100540000945796577656172424C450011065DCEBB
:10055000E15A50511DB1634DF9038B3298A8000048
:100560004572726F7220617420446973636F76659F
:100570007261626C65204D6F64650D0A00000000B9
:100580002000002068010020D4000020FEE7704712
:10059000014800F059B900005800002004480068E4
:1005A000800403D54FF4005000F00ABA70470000F1
:1005B000143C01402DE9F04377A1ABB00FC90DAC5D
:1005C00084E80F0078A211AC0FCA84E80F007AA269
:1005D00015AC0FCA84E80F007BA319AC0FCB84E8DD
:1005E0000F007DA31DAC0FCB84E80F0010220DA9D6
:1005F0007D48FFF720FE7D480090142301227A49B0
:10060000022002F03FF97848102211A91030FFF7BC
:1006100012FE7548102215A92030FFF70CFE724813
:10062000102219A93030FFF706FE6F4810221DA9CD
:100630004030FFF700FE00246C480726801CCDE9FF
:1006400004402020694DCDE90246CDE90004664A08
:10065000083D142310320221288902F039F805F1EF
:100660000C00CDE904401020CDE90246CDE900049C
:100670005D4A142320320221288902F029F805F16D
:100680000E00CDE904400220CDE90246CDE9000488
:10069000554A014614233032288902F019F805F131
:1006A0001000CDE90440012703960C208DE891004D
:1006B0004D4A142340320221288902F009F842F6FB
:1006C00001104BA1ADF82400D1E90001CDE92701CB
:1006D00049A121ABD1E90001CDE9290148A14FF0A1
:1006E000090907C983E8070048A224AB07CA83E8C1
:1006F0000700CDE9054605F11200CDE9074002A843
:1007000027A980E892004FF08008CDE9008909AB65
:1007100001226989288902F03AF805F11400CDE92F
:100720000740CDE9057602A829A980E89200CDE925
:10073000008909AB0122A989288902F028F8CDE9AE
:10074000054605F11600CDE9074021A80B21CDF89B
:100750000080CDE90110CDE9034709AB0122E98909
:10076000288902F014F8CDE9054605F11800CDE915
:10077000074024A90A22CDF80080CDE901210320F9
:10078000CDE9034009AB0122298A288901F0FFFF46
:100790002BB0BDE8F08300005DCEE15A50511DB191
:1007A000634DF9038B3298A896F74EBFB38EB7828C
:1007B000364B7E8B80EA259B96F74EBFB38EB78271
:1007C000364B7E8B81EA259B96F74EBFB38EB78260
:1007D000364B7E8B82EA259B96F74EBFB38EB7824F
:1007E000364B7E8B83EA259B840000200800002086
:1007F000544553545F4F4E45544553545F54574FDF
:10080000544553545F544852454500005445535491
:100810005F464F555200000070B5044600F0B0F935
:100820000546601C02D004480078044400F0A8F992
:10083000401BA042FAD370BD6000002010B10160DF
:1008400000207047012070470178074B01F01F011D
:1008500001228A401968114204D01A6040680028B9
:1008600000D0004770470000143C014003460020C0
:1008700009B1012070475A60704700002DE9F04F20
:100880000022DFF808B101264FF00F0906FA02F442
:1008900001EA0403A34273D122F003075F44D7F8AF
:1008A000088895074FEA157C09FA0CFA0AEA080548
:1008B000DFF8DC80404502D14FF000081DE0DFF892
:1008C000D480404502D14FF0010816E0DFF8C8801F
:1008D000404502D14FF002080FE0DFF8C0804045EC
:1008E00002D14FF0030808E0DFF8B480404502D1A0
:1008F0004FF0040801E04FF0070808FA0CF8A8458B
:1009000021D1284DD5F800C02CEA030CC5F800C051
:100910002D1DD5F800C02CEA030CC5F800C02D1D14
:10092000D5F800C02CEA030CC5F800C02D1DD5F881
:1009300000C02CEA030CC5F800C0D7F8085825EA17
:100940000A05C7F80858056857000323BB409D43B4
:100950000560D50800EB8505D5F820C057074FEA9C
:10096000D76809FA08F72CEA070CC5F820C0C56853
:100970009D43C5604568A543456084689C43846089
:10098000521C102A82D3BDE8F08F000000300140D5
:10099000000002400004024000080240000C024037
:1009A00000100240003C014010B5B0F5005F06D1D8
:1009B00001F0C0FBBDE810403220FFF72DBF10BD95
:1009C000044910B50A68024202D00860FFF7ECFF44
:1009D00010BD0000143C01402DE9F84F00224FF0FB
:1009E000010803254FF00F0E0B6808FA02F42340AC
:1009F000A34271D14E68012E05D0022E03D0112ED4
:100A000001D0122E15D18668570005FA07FC26EA98
:100A10000C06D1F80CC00CFA07FC4CEA060CC0F826
:100A200008C04668A6430C79C4F3001494403443CC
:100A30004460C668570005FA07FC8C6826EA0C0675
:100A4000BC403443C4604C68022C01D0122C13D13A
:100A5000D40800EB8404A346D4F8209054074FEA4E
:100A6000D46A0EFA0AF629EA06090E6906FA0AF6A7
:100A700046EA0906CBF8206004680E7924EA0C04E3
:100A800006F00306BE40264306604C68E40056D5D7
:100A90002E4C266846F480462660246822F0030621
:100AA00004F4804400942A4C3444A446D4F8084802
:100AB0009607370F0EFA07F6B443264EB04201D11F
:100AC000002615E0244EB04201D1012610E0234E4D
:100AD000B04202D102260BE031E0214EB04201D1FA
:100AE000032605E01F4EB04201D1042600E0072690
:100AF000BE402643CCF808681B4E34684F689C43C0
:100B0000FF0300D51C433460174E361D34684F6810
:100B10009C43BF0300D51C433460134E0836346831
:100B20004F689C43FF0200D51C4334600E4E0C36C8
:100B300034684F689C43BF0200D51C433460521C8C
:100B4000102AFFF451AFBDE8F88F0000443802408E
:100B50000030014000000240000402400008024052
:100B6000000C024000100240003C014000690840B7
:100B700000D0012070470AB1816170470904FBE78A
:100B800001488068704700006000002002488168CA
:100B90000278114481607047600000200B4810B556
:100BA000016841F400710160016841F480610160F5
:100BB000016841F480710160032000F07FF800209B
:100BC00000F006F800F024F8002010BD003C0240C0
:100BD00070B50D4D04464FF47A712878B1FBF0F0F2
:100BE0000A490968B1FBF0F000F049FC48B9102C43
:100BF00007D200222146501E00F040F800206C6011
:100C000070BD012070BD0000600000206C0000205D
:100C10000A4808B5016841F480410160006800F4A9
:100C2000804000900548001F016841F0805101603C
:100C3000006800F08050009008BD00004438024079
:100C400000280DDB00F01F020121914040098000C7
:100C500000F1E020C0F88011BFF34F8FBFF36F8F1A
:100C60007047002809DB00F01F0201219140400974
:100C7000800000F1E020C0F800117047F0B40E4B86
:100C80001B680C46C3F30223C3F10705042D00D9EA
:100C90000425191D072901D2002300E0DB1E0126CF
:100CA00006FA05F1491E214099409E40761E1640E5
:100CB0003143F0BC01F046BB0CED00E0064900F00A
:100CC000070208684FF6FF03184040EA0220034A73
:100CD00010430860704700000CED00E00000FA05CA
:100CE0002DE9F0470E46050065D0DFF81481D8F8ED
:100CF0000000F7B200F00F00B04207D288F8007091
:100D0000D8F8000000F00F00B04254D128683D4CE4
:100D1000810712D5400703D5206840F4E0502060D9
:100D20002878000703D5206840F4604020602068E0
:100D3000A96820F0F000084320602878C0072DD073
:100D4000304968680839012812D0022813D00328D6
:100D500011D00968890700292DDA216821F00301E3
:100D600001432160FFF70CFF814641F2883A0EE013
:100D700009688903EFE709688901ECE7FFF700FFDD
:100D8000A0EB0901514502D90320BDE8F087206896
:100D9000696800F00C00B0EB810FEFD1D8F80010BB
:100DA000404601F00F01B14207D90770006800F01A
:100DB0000F00B04201D00120E7E72878400705D5B1
:100DC0002068E96820F4E050084320602878000794
:100DD00006D52068296920F4604040EAC1002060FF
:100DE00000F038F82168084AC1F30311515CC8408B
:100DF0000649086006480068FFF7EAFE0020C4E7DD
:100E0000003C0240083802405C3500086C000020BD
:100E1000640000200448054900680968044AC1F3D9
:100E20008221515CC84070476C00002008380240A5
:100E30006C3500080448054900680968044AC1F394
:100E40004231515CC84070476C00002008380240B5
:100E50006C350008154810B5006810F00C021448F5
:100E600013D01449042A0FD0082A0ED10F4C241F86
:100E70002268236802F03F025B0207D52068C0F3B6
:100E80008810A0FB010106E0084610BD2168C1F3EF
:100E90008811A1FB00010023FFF79CF92168C1F331
:100EA0000141491C4900B0FBF1F010BD0838024077
:100EB0000024F40040787D012DE9F84F04006ED045
:100EC0002078DFF83C93C007A9F104054AD009F166
:100ED00004000168C1F38101012908D00068C0F352
:100EE000810002280AD1D9F80000400206D52868FE
:100EF000800337D560680028E1D033E06068B0F542
:100F0000803F10D0B0F5A02F286810D020F480309A
:100F10002860286820F4802028606068A8B1FFF766
:100F20002FFE06460DE0286840F48030F4E740F4D8
:100F300080202860F7E700BFFFF722FE801B6428AF
:100F400073D828688003F7D50CE0FFF719FE064632
:100F500005E000BFFFF714FE801B6428F0D8286866
:100F60008003F7D42078DFF89C8280074FF0000AD6
:100F70003ED5A348001D016811F00C0F08D0006891
:100F8000C0F3810002280BD1D9F80000400207D439
:100F90002868800716D5E068012800D112E02BE10F
:100FA000E068B8B10120C8F80000FFF7E9FD064687
:100FB00005E000BFFFF7E4FD801B0228C0D82868C9
:100FC0008007F7D52868216920F0F80040EAC100C1
:100FD00028600DE0C8F800A0FFF7D2FD064604E047
:100FE000FFF7CEFD801B02281FD828688007F7D4A2
:100FF0002078000722D5824E83486169703671B12E
:1010000001210160FFF7BCFD074604E0FFF7B8FDD2
:10101000C01B022809D830688007F7D50EE0C0F859
:1010200000A0FFF7ADFD074605E082E0FFF7A8FD51
:10103000C01B02287DD830688007F7D4207840078D
:1010400068D5DFF8BCB100270BF13C0BDBF80000E2
:10105000C0000BD4DBF8001041F08051CBF8001039
:10106000DBF80000012700F080500090674E3068E8
:10107000C00510D4306840F480703060FFF780FD08
:10108000009005E0FFF77CFD0099401A022850D837
:101090003068C005F6D55A4EA0686C3601280FD0CE
:1010A0000528306810D020F001003060306820F052
:1010B00004003060A068B8B1FFF762FD00900FE057
:1010C000306840F00100F4E740F004003060F7E7DA
:1010D000FFF756FD0099411A41F28830814266D8E7
:1010E00030688007F4D50EE0FFF74AFD009007E076
:1010F000FFF746FD0099411A41F28830814256D8E7
:1011000030688007F4D42FB1DBF8001021F0805153
:10111000CBF80010A069C8B33949091D0968C1F3AB
:10112000810102294AD00228504607D0C8F8600041
:1011300000E03CE0FFF724FD04463BE04746C8F8EA
:101140006000FFF71DFD064605E000BFFFF718FD34
:10115000801B02282BD828688001F7D4D4E9070126
:101160000843A16A2A4A490802EB0141626A41EA3E
:101170008211084394F82C1040EA0161C9F800106C
:1011800001203866FFF7FCFC044606E036E000BFAD
:10119000FFF7F6FC001B022809D828688001F7D564
:1011A0002CE000BFFFF7ECFC001B022802D9032053
:1011B000BDE8F88F28688001F4D41FE00128F7D03B
:1011C000D9F80000E26900F48001914214D1226A4A
:1011D00000F03F0191420FD147F6C071626A0140B1
:1011E000914209D1A26A00F44031914204D1E16AEE
:1011F00000F07060884201D00120D9E70020D7E7D5
:101200000438024000004742800E47420070004010
:101210000000FFFF90F85100704770B5040005D042
:101220000025A56294F8510010B106E0012070BDC0
:1012300084F85050204600F030F8022084F8510025
:101240002068016821F040010160D4E901010843F0
:10125000D4E903121143084361690843218B01F467
:1012600000710843E1690843216A0843A16A084301
:1012700021680860A069042101EA1040616A0843FE
:10128000216848602068C16921F40061C161656519
:10129000012084F85100002070BD70472DE9F84FFF
:1012A000044690F8500000270A9E1D4692468B4641
:1012B0004FF0010901280ED0012084F85000FFF7FB
:1012C0005FFC804694F85100616801280CD0B1F5AC
:1012D000827F07D102E00220BDE8F88FA16809B93A
:1012E000042801D00227C2E0BBF1000F27D0BAF1D9
:1012F000000F24D01DB394F85100042802D005201B
:1013000084F8510000206065C4F838A0E587A587FF
:10131000C4F830B0E586A586206460642068016862
:10132000490603D4016841F040010160E068B0F56E
:10133000006F606805D0E8B3012D46D07FE001273B
:1013400095E008B1012D39D1206B21680088C86073
:10135000206B801C2063E08E401EE0862EE020681B
:10136000816889070FD5E18E69B1B9F1010F0AD102
:10137000216B0988C160206B801C2063E08E401EB9
:10138000E0864FF0000920688168C9070CD0E18F22
:1013900051B1C068A16B0880A06B801CA063E08F76
:1013A000401EE0874FF00109FFF7EAFBA0EB0800C1
:1013B000B04200E009E001D3701C50D1E08E00285B
:1013C000CDD1E08F0028CAD13FE0206B21680078A2
:1013D0000873206B401C2063E08E401EE0862EE0E8
:1013E0002068816889070FD5E18E69B1B9F1010FD5
:1013F0000AD1216B09780173206B401C2063E08EB9
:10140000401EE0864FF0000920688168C9070CD0B3
:10141000E18F51B1C068A16B0870A06B401CA06344
:10142000E08F401EE0874FF00109FFF7A9FBA0EB1A
:101430000800B04202D3701C01D010E07EB1E08EF3
:101440000028CDD1E08F0028CAD14246314620463F
:1014500000F0CEFC28B101272020606507E00327BB
:1014600005E0A06818B92068C16880680090012074
:1014700084F85100002084F8500038462CE710B55D
:10148000401EB0F1807F01D3012010BD4FF0E02459
:1014900060610F21601700F055FF0020A061072058
:1014A0002061002010BD70477047000070B590F8B3
:1014B0003C20012A2CD0012480F83C40022280F8F4
:1014C0003D2003685A689D6822F070060A6832431E
:1014D0005A60104B02689A420ED0B2F1804F0BD086
:1014E0000D4B9A4208D00D4B9A4205D00C4B9A42B4
:1014F00002D00C4B9A4204D1496825F0800319436D
:10150000916080F83D40002180F83C10084670BD95
:10151000022070BD000001400004004000080040AF
:10152000000C00400040014010B5040003D094F8C6
:101530003D0010B107E0012010BD002084F83C0000
:10154000204600F00DF8022084F83D00211D20689F
:1015500000F06EFD012084F83D00002010BD000069
:1015600008B501681448B1F1804F14D0134A914274
:1015700020D1016841F0040101600068002200F000
:101580000400009004211E20FFF778FB1E20BDE818
:101590000840FFF766BB016841F001010160006887
:1015A000002200F00100009003211C20FFF766FBE1
:1015B0001C20ECE708BD0000403802400008004055
:1015C00070B5044690F83C00012817D0012584F836
:1015D0003C50022084F83D002068826822F07702A7
:1015E00022F47F4282600868502830D00DDC202829
:1015F0004DD005DC98B310283BD148E0022070BDE7
:10160000302844D0402834D139E0602828D07028D0
:1016100006D0B0F5805F2CD0B0F5005F29D10AE08C
:10162000CB68D1E90121206800F04EFD2068816877
:1016300041F0770109E0CB68D1E90121206800F091
:1016400043FD2068816841F48041816011E0CA68EF
:101650004968206800F04AFD5021206807E016E044
:10166000CA684968206800F052FD6021206800F0D7
:1016700035FD84F83D50002084F83C0070BDCA68F8
:101680004968206800F032FD40212068EFE72268B9
:1016900001461046EBE7704770B5044600680169E3
:1016A0004FF00005C943890715D4C168C9438907AC
:1016B00011D4E91E0161012020772068806980072C
:1016C000204602D0FFF7E7FF04E000F098F820463C
:1016D00000F096F8257720680169C943490717D4B7
:1016E000C168C943490713D46FF0040101610220A6
:1016F00020772068806910F4407F204602D0FFF7F1
:10170000CAFF04E000F07BF8204600F079F8257766
:1017100020680169C943090716D4C168C94309078C
:1017200012D46FF008010161042020772068C0699D
:101730008007204602D0FFF7AEFF04E000F05FF81C
:10174000204600F05DF8257720680169C943C90685
:1017500017D4C168C943C90613D46FF010010161E1
:10176000082020772068C06910F4407F204602D00E
:10177000FFF791FF04E000F042F8204600F040F847
:10178000257720680169C943C90708D1C168C943E1
:10179000C90704D1891E0161204600F032F8206893
:1017A0000169C943090609D4C168C943090605D4BA
:1017B0006FF0800101612046FFF775FE2068016926
:1017C000C943490609D4C168C943490605D46FF025
:1017D00040010161204600F015F820680169C94305
:1017E00089060BD4C168C943890607D46FF020016C
:1017F00001612046BDE87040FFF756BE70BD7047DE
:1018000070477047704770B5040004D094F83900F1
:10181000002510B106E0012070BD84F83850204644
:1018200000F022F8242084F839002068C16821F4EF
:101830000051C160204600F0B5FC2068016921F428
:10184000904101612068416921F02A0141612068CD
:10185000C16841F40051C160E563202084F839007B
:1018600084F83A00002070BD10B586B004461421FB
:101870006846FEF7F9FC14492068884221D11348D4
:101880000021026842F010020260006800F01000BF
:1018900005900E481438026842F0010202600068A8
:1018A00000F0010005904FF4C06000900220CDE9E7
:1018B0000101032003900720049069460448FFF7C4
:1018C0008BF806B010BD0000001001404438024003
:1018D000000002402DE9F843044690F839001F4605
:1018E00016460D46202850D1B5B1AEB194F8380057
:1018F00001284AD0012084F838004FF00008C4F8CD
:101900003C80212084F83900FFF73AF9A68481460B
:10191000E68484F8388026E00120BDE8F883E08C76
:10192000401EE084A0684B46B0F5805F4FF0000297
:101930004FF080012046009703D000F0C7FCE8B9C3
:101940000DE000F0C3FCC8B928882168C0F3080086
:101950004860206908B16D1C05E0AD1C03E02168FA
:1019600015F8010B4860E08C0028D8D14B460022C6
:1019700040212046009700F0A9FC08B10320CCE7E5
:10198000202084F839000020C7E70220C5E70000C6
:1019900010B5074C01212046FEF770FF02212046BA
:1019A000FEF76CFFA1152046FEF768FF002010BD72
:1019B0000000024070B5184886B00024016841F06C
:1019C000010101600068012500F00100009505900B
:1019D0001248CDE90104124E69463046FEF7FCFF7D
:1019E00028020090CDE90154694630460394FEF781
:1019F000F3FF02200090CDE901546946304603947C
:101A0000FEF7EAFF012202213046FFF7B4F8FEF7A5
:101A1000B7FC06B070BD0000303802400000111065
:101A2000000002402DE9F04188B00E4600241BA1C1
:101A300007468DF81C40D1E90001CDE902010620DE
:101A4000FFF7FEF8DFF85C80002202214046FFF736
:101A500092F8052204A902A8FEF7B2FCBDF81350C3
:101A60007DB1B5420BD9354609E0012206A907A888
:101A7000FEF7A6FC9DF818003855641CE4B2AC4291
:101A8000F3D3012202214046FFF775F80620FFF745
:101A9000E8F808B02046BDE8F08100000B00000027
:101AA000000000000000024070B50C4C0122022131
:101AB0002046FFF760F8A515002229462046FFF7CB
:101AC0005AF80520FEF7A8FE012229462046FFF716
:101AD00052F80520FEF7A0FE002070BD0000024075
:101AE0002DE9FF5F894629A18346D1E90001CDE9AF
:101AF0000201FFF745F882460620FFF7A1F86FF0D4
:101B000002056FF00108234FFFF73AF8064600245C
:101B1000224602213846FFF72EF80BE0FFF730F897
:101B2000801B0F2806D92C46012202213846FFF7D8
:101B300022F823E000F034F80028EFD005226946AF
:101B400002A8FEF73DFCBDF801004946484505D313
:101B50000A4611495846FEF733FC00E0444601228C
:101B600002213846FFF707F8FFF70AF8A0EB0A0052
:101B70000F2801D92C4601E0002CC5DB0620FFF719
:101B800070F804B02046BDE8F09F00000A00000095
:101B9000000000000000024000020020FEE70000FC
:101BA00010B501210348FEF7E1FF012800D0002015
:101BB00010BD0000000002402DE9F04186B0142164
:101BC0006846FEF751FB28480024016841F00401F3
:101BD0000160016801F004010591016841F0010113
:101BE0000160016801F001010591016841F0020105
:101BF00001600068DFF8748000F002004FF4917714
:101C00000590002239464046FEF7B5FF184D4FF4C7
:101C10000050CDE90005694602941648FEF7DCFE47
:101C200001260096CDE9015469464046FEF7D4FEF0
:101C30000097CDE90164694640460394FEF7CCFE67
:101C4000002211460620FFF719F80620FFF709F8D1
:101C5000002202212820FFF711F82820FFF701F8C1
:101C600006B0BDE8F08100003038024000000240BC
:101C7000000011100008024010B50D490160002459
:101C80004FF48271C0E901140122C460C0E904422A
:101C9000520282613022C0E9072444620A21C0E96D
:101CA0000A41FFF7BAFA00B10124204610BD000036
:101CB0000030014010B586B0002410480094019413
:101CC0000294039404944FF080410594C0E90014F9
:101CD000611EC0E9024104618461FFF725FC4FF4F5
:101CE0008050009069460548FFF76AFC049404A9F7
:101CF00002480594FFF7DAFB06B010BDE8000020AB
:101D000010B586B000241148009401940294039405
:101D100004940D490594C0E900144FF6FF71C0E921
:101D2000024104618461FFF7FFFB4FF48050009093
:101D300069460648FFF744FC049404A90348059447
:101D4000FFF7B4FB06B010BD0008004028010020DA
:101D5000FEE77047704700002DE9F041214886B04A
:101D60000024016841F480510160006800F4805053
:101D700005901C481438016841F0010101600168B8
:101D800001F001010591016841F002010160006864
:101D9000022500F0020005904020CDE9000502AACE
:101DA00003260527DFF8408082E8D00069464046D8
:101DB000FEF712FE8020CDE9000502AA694682E8FE
:101DC000D0004046FEF708FE0820CDE9000502AA33
:101DD000694682E8D0000548FEF7FEFD06B0BDE882
:101DE000F08100004438024000000240000402403C
:101DF00038B504461248134B0068B0FBF3F04FF4BB
:101E00007A73584300906068B0F5827F0DD10B461D
:101E1000009200228021204600F016F870B1606D1B
:101E200040F020006065032038BD009830B1401EAE
:101E3000009020688068C0430006F6D5002038BDB9
:101E40006C00002000366E012DE9F0411D4617465A
:101E50000E460446DDF8188008E0681C06D0FEF740
:101E60008FFEA0EB0800A8420BD255B12068806815
:101E700036EA000030D00020B842EED10020BDE8A4
:101E8000F0812068416821F0E00141606068B0F5B0
:101E9000827F0BD1A068B0F5004F02D0B0F5806F03
:101EA00004D12068016821F040010160A06AB0F50A
:101EB000005F09D12068016821F4005101602068A9
:101EC000016841F400510160012084F851000020B4
:101ED00084F850000320D2E70120CDE770470000CE
:101EE0000748FF2181714FF6FF7101814181818196
:101EF000C1810021017450380165A0F85410704769
:101F0000D400002010B519A186B0D1E90001CDE9B7
:101F10000201684601F034F8164940F6B8306A46C6
:101F2000088000200C88135C401C04EB4303C0B203
:101F30000B800828F6D39DF800008DF808009DF866
:101F400003008DF809009DF806008DF80A0002AA2A
:101F50000621002000F05FFE002804D10520401E6D
:101F600010F0FF00FBD106B010BD0000000000E142
:101F70008002000000000020FEF708BE30B593B0DC
:101F800030216846FEF770F914210CA8FEF76CF9B1
:101F900018480025016841F080510160006800F098
:101FA000805011901448016841F44041016000687C
:101FB000022400F44040119001200390102000946E
:101FC00006940490CDE90750C820CDE90904042007
:101FD0000B906846FEF770FF0CA90F2081E83100D6
:101FE0004FF4E050CDE90F0503210CA8FEF778FE71
:101FF00013B030BD40380240007000400548016811
:1020000041F47001016003494FF0006080390860BD
:102010007047000088ED00E00148FFF73DBB00007D
:10202000E80000200148FFF737BB0000280100202E
:10203000F0B502681D4B1E4C9F031E4D1E4E98426C
:1020400007D0B84205D0A04203D0A84201D0B04288
:1020500004D122F0700C4A6842EA0C02984210D077
:10206000B8420ED0A0420CD0A8420AD0B04208D04C
:10207000124CA04205D0124CA04202D0114CA042FA
:1020800003D122F44074CA6822434C6922F08002D2
:10209000224302608A68C2620A688262984201D161
:1020A0000969016301214161F0BD000000000140A8
:1020B0000004004000080040000C004000400140C7
:1020C000004401400048014010B5846842EA032200
:1020D00024F47F440A432243826010BD826822F0C8
:1020E00070020A4342F007018160704710B5036A2D
:1020F000046A24F001040462846924F0F00444EAD0
:10210000021423F00A020A438461026210BD10B572
:10211000036A23F0100303628369046A23F47043A3
:1021200043EA023224F0A00343EA01118261016212
:1021300010BD000070B5124C86B0207FC20720464B
:10214000C189008918D00FA696E86C000DF1040C27
:102150008CE86C0001AD10230022009500F0D0FC4B
:102160000095102300226189208900F0C9FCE069F4
:10217000401CE06106B070BD06A36CCBE6E7000032
:1021800000000020FFEEDDCCBBAA9988776655449D
:102190003322110000112233445566778899AABB77
:1021A000CCDDEEFF2DE9F041044600680169E268EC
:1021B00021F44051114301612169A068E26908439B
:1021C0006169114308432168CA6849F20C639A4364
:1021D0000243CA6020684169A26921F44071114339
:1021E0004161E069192764253226B0F5004F354A70
:1021F000354920684FF0000806D0884201D090424F
:1022000036D1FEF717FE35E0884201D0904202D168
:10221000FEF710FE01E0FEF7FDFD61684A18A0FB25
:10222000070148EB0803FDF7D5FF0146B0FBF5F0C9
:102230000201B1FBF5F06FF01803584301EB800089
:1022400006EBC000B0FBF5F000F0F80002EB400236
:10225000B1FBF5F0584301EB800006EBC000B0FB8A
:10226000F5F000F00700216810448860BDE8F081B7
:10227000FEF7D0FD61688B0F8A00A0FB0701FDF718
:10228000A9FF0146B0FBF5F06FF01802504301EBD7
:10229000800006EB0010B0FBF5F000F0F002B1FB9F
:1022A000F5F002EB0012B1FBF5F06FF018035843A4
:1022B00001EB800006EB0010B0FBF5F000F00F0022
:1022C000D1E7000000140140001001402DE9F04169
:1022D000984617460E460446069D1DE0681C1BD016
:1022E0002DB1FEF74DFCA0EB0800A84214D92068E0
:1022F000C16821F4D071C1602068416921F00101F9
:102300004161202084F8390084F83A00002084F8E4
:1023100038000320BDE8F0812068006836EA00003C
:1023200004D00020B842D9D00020F3E70120F9E71B
:10233000FEE70000014A024900F023B8E72C00083C
:10234000800000200907090E002804DB00F1E020CE
:1023500080F80014704700F00F0000F1E02080F8D2
:10236000141D704702E008C8121F08C1002AFAD1E4
:1023700070477047002001E001C1121F002AFBD105
:1023800070472DE9F04116460F460446002503E04C
:102390003946B047641C6D1C20780028F8D12846C7
:1023A000BDE8F081704710B5418800240088FFF730
:1023B000F9FF204610BD704710B500240088FFF7D4
:1023C000FAFF204610BD704730B5A1B00024214669
:1023D0006A460AE000EB810333F8035F22F82150DC
:1023E00002EB81055B886B80491C83788B42F1DCB2
:1023F000D9B20088FFF7E7FF21B0204630BD704713
:1024000070B50588C2788178031D00242846FFF73F
:10241000F6FF204670BD704738B5C11D0091837925
:102420008288418800240088FFF7F5FF204638BDE8
:10243000704710B503888178C21C00241846FFF746
:10244000F7FF204610BD704770B50588C2788178C7
:10245000031D00242846FFF7F6FF204670BD704795
:1024600070B50588C2788178031D00242846FFF7DF
:10247000F6FF204670BD704710B503888178C21CF6
:1024800000241846FFF7F7FF204610BD704710B52F
:1024900003888178C21C00241846FFF7F7FF204606
:1024A00010BD704730B589B0D0F81D100DF1100C7B
:1024B00000F1260590F82530D0F821208CE82E0078
:1024C000D0F80D10D0F81950D0F81530D0F81120F0
:1024D0008DE82E00D0F80930D0F8052050F8011F03
:1024E000002410F8010CFFF7DCFF09B0204630BDD6
:1024F000704710B50024FFF7FBFF204610BD704762
:1025000010B500240078FFF7FAFF204610BD704791
:1025100010B500240088FFF7FAFF204610BD704771
:1025200010B500240088FFF7FAFF204610BD704761
:1025300010B50024FFF7FBFF204610BDF0B5C9B071
:102540001C46002341938DF80000DDE94E658DF8AF
:10255000011042938DF802200327182143A8FDF7AC
:1025600083FE3F20ADF80C018A20ADF80E016846CD
:10257000CDE9450741A8479007204890002143A88E
:1025800000F0F4FD002802DAFF2049B0F0BD9DF80C
:1025900004010028F9D1BDF805012080BDF807012C
:1025A0003080BDF8090128800020EEE7704710B5A3
:1025B000817800240088FFF7F9FF204610BD70479E
:1025C00010B50024FFF7FBFF204610BD704710B583
:1025D000D0F8021000240088FFF7F8FF204610BD55
:1025E000704710B5C278817800240088FFF7F8FFA3
:1025F000204610BD704710B500240088FFF7FAFF91
:10260000204610BD704770B5057882784178C31CAC
:1026100000242846FFF7F6FF204670BD2DE9F04F55
:10262000CBB08446DDE954A4DDE956B74FF000088D
:102630008DF81C818DF800C0ADF80110ADF80320B5
:102640000DEB0406684606F108058DF80530814655
:102650003E448DF806A04FF001088DF80740224651
:10266000594602A80936FDF7E6FD2F703A46681C68
:1026700009345899FDF7DFFD5999E01931805A99CD
:10268000001D7180C4B2182141A8FDF7EDFD3F2067
:10269000ADF804018320ADF8060147A8CDE9444018
:1026A0000021CDF80C91CDF8188141A800F05EFD15
:1026B000002803DAFF204BB0BDE8F08F9DF81C0125
:1026C000F9E7704710B50024FFF7FBFF204610BD67
:1026D0002DE9F04FC9B0984613460246DDF854B1D3
:1026E000DDF85CA1DDF848916846012914D0022983
:1026F00014D000240646A51900244194ADF800200A
:102700000327ED1C8DF80210012909D0022909D0F8
:10271000472049B0BDE8F08F0224EBE71024E9E739
:10272000022400E0102422461946C01CFDF783FD58
:10273000A5F8008085F802905398E87054982871A5
:1027400085F805B05698A8710A34E4B2182142A859
:10275000FDF78AFD3F20ADF808014FF48270ADF817
:102760000A0141A847974496CDE94540002142A877
:1027700000F0FCFC002801DAFF20CAE79DF8040104
:102780000028C6D1BDF80511AAF80010C1E72DE94F
:10279000F04FC9B00446DDE95297DDF85CB1DDF8D1
:1027A00064A16846012A21D0022A21D000260644CD
:1027B000761D012A1ED0022A1FD04FF0000C0CEB10
:1027C00000054FF0000C3D44CDF804C1ADF80040C9
:1027D000ED1D8046ADF802108DF80420012A0FD0BF
:1027E000022A0FD0472049B0BDE8F08F0226DEE76D
:1027F0001026DCE74FF0020CE1E74FF0100CDEE7AB
:10280000022400E0102422461946401DFDF713FD66
:1028100086F8009077703A46B01CE41D5499FDF795
:102820000AFD559929705699697085F802B0E0192A
:102830005899E970401DC4B285F804A0182142A837
:10284000FDF712FD3F20ADF8080140F20510ADF88C
:102850000A0141A8CDF81081CDE9454003204790F9
:10286000002142A800F082FC002801DAFF20BAE72C
:102870009DF804010028B6D15A98BDF805110180D1
:102880000020B0E72DE9F043C9B01F46DDF84091C4
:1028900090466B46012811D0022811D000221E4616
:1028A0009519002241926D1C8DF80000012809D075
:1028B000022809D0472049B0BDE8F0830222EEE7A4
:1028C0001022ECE7022400E010242246581CFDF7F9
:1028D000B2FC85F800806F70182142A8E41CFDF757
:1028E000C3FC3F20ADF808014FF48170ADF80A0138
:1028F00041A84496CDE9454003204790002142A8D5
:1029000000F034FC002801DAFF20D4E79DF8040130
:102910000028D0D1BDF80511A9F80010CBE70000C0
:102920003EB51A4C0698228A521C914226D1022B9F
:1029300024D302786F2A01D04F2A1FD1417814483E
:102940006E291CD04E291AD06F2A01D04F2A15D1DA
:10295000662901D0462911D100222021FEF70BF96A
:102960000CA100BFD1E90001CDE9010101A800904F
:1029700006230022A189208900F0C2F83EBD012271
:102980002021FEF7F8F805A1ECE700000000002088
:10299000000002404F464641434B00004F4E41432A
:1029A0004B00000038B500F108010091C38882880F
:1029B000418800240088FFF7B3FF204638BD7047E8
:1029C00070B5058802794188431D00242846FFF729
:1029D000F6FF204670BD704710B54379B0F803206C
:1029E000817800240088FFF7F6FF204610BD70476D
:1029F00070B5058802794188431D00242846FFF7F9
:102A0000F6FF204670BD00B587B000208DF80000AD
:102A1000182101A8FDF728FC3F20ADF8040040F282
:102A20000110ADF8060001200690CDF814D0002169
:102A300001A800F09BFB002802DAFF2007B000BDD0
:102A40009DF80000FAE7704770B505880279418863
:102A5000431D00242846FFF7F6FF204670BD70474F
:102A600038B5C11D0091837982884188002400888F
:102A7000FFF7F5FF204638BD704710B58178002478
:102A80000088FFF7F9FF204610BD704710B50024FD
:102A90000088FFF7FAFF204610BD704710B5A0B0C0
:102AA000002421466A4606E000EB4103B3F80330F8
:102AB00022F81130491C83788B42F5DCD9B20088AA
:102AC000FFF7EBFF20B0204610BD704710B582889D
:102AD000418800240088FFF7F8FF204610BD7047AA
:102AE00010B500240088FFF7FAFF204610BD70479C
:102AF00010B5418800240088FFF7F9FF204610BD7B
:102B000070B5CAB01C46034600268DF81C614E9D68
:102B1000ADF800308DF80420ADF802108DF80540B6
:102B2000224629460DF10600FDF785FBA41DE4B2FF
:102B3000182141A8FDF798FB3F20ADF804014FF4A0
:102B40008370ADF806016846CDE9430447A8459077
:102B500001204690002141A800F008FB002802DA7D
:102B6000FF204AB070BD9DF81C01FAE7704770B5B0
:102B7000058802794188431D00242846FFF7F6FFA7
:102B8000204670BD704710B5D0F80220417800246F
:102B90000078FFF7F7FF204610BD704710B50378A7
:102BA0004178821C00241846FFF7F7FF204610BD2D
:102BB000704710B590F900304178821C0024184607
:102BC000FFF7F6FF204610BD30B5C9B000228DF8E2
:102BD00000008DF801108DF81C2101240225182118
:102BE00041A8FDF741FB3F20ADF804010F20ADF8EF
:102BF00006016846CDE9430547A8CDE94504002113
:102C000041A800F0B3FA002802DAFF2049B030BD35
:102C10009DF81C01FAE730B5C9B00C4613460146D1
:102C200000228DF800108DF81C2101258DF801403F
:102C3000224619460DF10200FDF7FDFAA41CE4B28C
:102C4000182141A8FDF710FB3F20ADF804010C202E
:102C5000ADF806016846CDE9430447A8CDE945052E
:102C6000002141A800F082FA002802DAFF2049B0D2
:102C700030BD9DF81C01FAE7704738B5811D009101
:102C80004379B0F80320817800240088FFF7F4FF2F
:102C9000204638BD70473EB5B0F80710B0F80B308D
:102CA000B0F809208DE80E00B0F80530B0F8032028
:102CB000817800240088FFF7EDFF20463EBD704775
:102CC00010B5418800240088FFF7F9FF204610BDA9
:102CD000704710B503888178C21C00241846FFF79E
:102CE000F7FF204610BD4FF0FF307047704710B51A
:102CF00000240078FFF7FAFF204610BDFFF7F0B878
:102D000010B5C278B0F8011000240078FFF7F6FF84
:102D1000204610BD704710B5C278B0F801100024ED
:102D20000078FFF7F7FF204610BD704710B5B0F8E8
:102D3000011000240078FFF7F8FF204610BD70470F
:102D400010B500240078FFF7FAFF204610BD000000
:102D500070B5134D00B1E861124800F039FB11481D
:102D6000083000F035FB00F0C5FA0F4E002400BF1C
:102D7000C4EBC40000EB800006EB8001094800F0C2
:102D800036FB641CE4B20A2CF2D3296809B1002096
:102D90008847A868002802D0BDE87040004770BD91
:102DA0007808002070000020000300207047000019
:102DB000F0B5002405469FB00121204624E000BF65
:102DC00000EB400202EBC0035A1900EB8003577876
:102DD0006E460DF8237006EB830397785F70D2F888
:102DE0000360C3F80260B2F80760DE80567A1E7294
:102DF00002F10A06DE60527A09311144C9B26A5CF6
:102E0000491C1A74C9B2401C2A788242D8DC28783E
:102E10006946FFF7CBFF1FB02046F0BD70B50DF13E
:102E2000100C09489CE8780001818271A0F15001E2
:102E30001A680A659A88A1F8542044818581C68160
:102E40009921017470BD0000D400002030B585B018
:102E5000B0F80B100DF1040C457CB0F80F30B0F851
:102E60000D208CE82E00411D00910379C278B0F846
:102E7000011000240078FFF7D1FF05B0204630BDD7
:102E8000704738B5B0F807100091B0F80530B0F8C9
:102E9000032030F8011F002410F8010CFFF7F0FFA9
:102EA000204638BD704738B501890091C3888288B3
:102EB000418800240088FFF7F5FF204638BD7047A1
:102EC00030B50024A1B021461CE000BF00EB011387
:102ED0006A4602EB01125D7815709D785570D3F843
:102EE0000350C2F80250B3F80750D5805D7A1572CE
:102EF000D3F80A50C2F80950DD89A2F80D501B7CA6
:102F0000D373491C02788A42E0DCD0B26946FFF7ED
:102F1000D6FF21B0204630BD704730B587B0B0F83D
:102F200017100DF10C0C457FB0F81B30B0F81920CC
:102F30008CE82E0000F111039A1F411D8DE80E0050
:102F40000379C278B0F8011000240078FFF7E4FF9D
:102F500007B0204630BD704710B50278411C0024F0
:102F60001046FFF7F8FF204610BD704710B50388E4
:102F70004289811C00241846FFF7F7FF204610BD48
:102F800010B58AB0044600200090019002901821EC
:102F900003A8FDF769F90820ADF80C001820ADF87A
:102FA0000E0009200890CDF81CD0002103A800F0E5
:102FB000DDF8002802DAFF200AB010BD9DF80000FD
:102FC0000028F9D1DDF801002060DDF8050060601F
:102FD0000020F1E7704710B50278411C002410462C
:102FE000FFF7F8FF204610BD704710B50378B0F822
:102FF0000110C21C00241846FFF7F6FF204610BD42
:1030000030B5C9B000226B468DF81C218DF8000048
:10301000012419B11F22581CFDF70DF92025182194
:1030200041A8FDF721F90820ADF804010920ADF809
:1030300006016846CDE9430547A8CDE945040021CE
:1030400041A800F093F8002802DAFF2049B030BD13
:103050009DF81C01FAE7000038B5002004460090F6
:10306000154800F0D0F910B10124204638BD69465A
:10307000114800F0D4F91148C268002AF5D0009830
:10308000802108309047009910F0FF000FD081F8A0
:1030900088000B7A01F10802042B08D19278C01E37
:1030A000824204D10448083000F0A1F9DDE702486B
:1030B00000F091F9D9E700007000002078080020A6
:1030C000704730B5A1B0002421466A460AE000EB03
:1030D000810333F8015F22F8215002EB81055B8800
:1030E0006B80491C03788B42F1DCD8B21146FFF7A4
:1030F000E7FF21B0204630BD704738B5C188009148
:103100008388C278B0F8011000240078FFF7F4FF3C
:10311000204638BD054902680A60C268CA60026973
:103120000A6182698A618068886070477808002037
:1031300000B587B000208DF80000182101A8FDF728
:1031400093F80320ADF80400ADF8060001200690C6
:10315000CDF814D0002101A800F008F8002802DA08
:10316000FF2007B000BD9DF80000FAE72DE9F0410F
:103170000F46044601884088A8B061F39F2085B2BD
:103180004FF0000826A8CDF8908000F021F908E063
:103190006946564800F043F954480099083800F051
:1031A00026F95248083800F005F90528F0DB228896
:1031B0006088267B62F39F20A168ADF8840001201F
:1031C0008DF886608DF80000BDF88400ADF8010030
:1031D0008DF80360324601A8FDF72DF844480269D6
:1031E00012B1311D684690471FB1002028B0BDE8DC
:1031F000F0814FF47A7600BFFDF7C2FC4FEA00077A
:10320000FDF7BEFCC01BB04262D8384800F0FBF8A6
:103210000028F5D124A9354800F001F9249800F1DF
:103220000803017A04293ED190F888205878D91CE7
:10323000D21E0E2814D00F2804D0102848D03E28C3
:1032400031D118E04888A84242D160680F2802D0E6
:103250000878A8BB27E0606909E06261206916E090
:10326000B1F80100A84233D1C91C6069D21E904256
:10327000F3D80246F1E708786368984213D1606991
:10328000521E904200D802466261491C2069FCF738
:10329000D2FF16482499083800F09DF826A9134853
:1032A00000F04AF9A1E71148083800F0ACF840B145
:1032B0000E4800F0A8F820B10C482499083802E024
:1032C00006E026A8249900F092F8CDF8908093E7C4
:1032D000249919B10548083800F07DF826A903485B
:1032E00000F02AF94FF0FF3080E70000780000205E
:1032F0007808002000B587B011480090114801906F
:10330000114804901148039011480290114806900A
:103310006846FFF7FFFE4FF0C0610F48FDF78EFAD9
:103320000E4A00210C48FDF7A1FA002211460620A2
:10333000FDF7A4FC0620FDF794FC07B000BD0000DB
:10334000B519000891190008E11A0008251A0008AB
:10335000A91A00087D030008580000206133000806
:1033600010B504E00020FFF777FE002803D1FEF738
:1033700017FC0028F6D110BD38B500200B4C00908A
:103380000DE069460A4800F04AF8E16911B1009879
:103390000830884706480099083800F028F80448A3
:1033A00000F031F80028ECD038BD0000780800208B
:1033B0007800002003460020EFF3108172B61A68EF
:1033C00001E01268401C9A42FBD181F310887047DB
:1033D000006040607047EFF3108272B60368C1E985
:1033E00000300160086882F3108841607047EFF395
:1033F000108272B6086043684B604160486882F38F
:10340000108801607047EFF3108172B60268824243
:1034100001D1012000E0002081F31088704730B511
:103420000D46EFF3108472B601682960006800F061
:1034300008F8296800200860296884F3108848602B
:1034400030BDEFF3108172B6D0E900231A6005C8D1
:1034500081F310884260704730B50D46EFF3108459
:1034600072B6416829604068FFF7EBFF29680020C9
:103470000860296884F31088486030BDFDF78EFB32
:10348000FEF77CFDFEF798FBFEF714FCFEF738FC18
:10349000174816490C2201604FF4E13141600021C8
:1034A0008160C160C0E904128161C161FEF7ABF9BE
:1034B0004FF47A74234632220E490D48FEF70AFA79
:1034C00032220DA10B48FCF7DAFE234632220949CD
:1034D0000748FEF7FFF910A0FEF72CFFFCF782FF6C
:1034E000FCF7F8FFFCF7E2FFFCE7000000100140EA
:1034F0006801002020000020496E74726F20746FF4
:1035000020426C7565746F6F7468204C6F7720452E
:103510006E657267790D0A004B65696C205465729F
:103520006D696E616C205072696E746F7574207471
:103530006573740A0000000038B50C46054607E0C4
:1035400069462046FFF788FF28460099FFF743FFAA
:103550002046FFF758FF0028F2D038BD00000000D9
:103560000000000001020304060708090000000033
:103570000102030405000000012D000808000000FE
:10358000172D00080C000000FB30000810000000A0
:10359000412D000813000000C33000081A0000008D
:1035A000EF2C0008300000002D2D00080100000065
:1035B0004D2E000802000000B12D0008030000009D
:1035C000832E000804000000EB2F00080500000017
:1035D0006D2F000807000000A72E0008080000005B
:1035E000D72F000809000000592F00080A0000002A
:1035F0001B2F00080B000000C12E00080100000076
:103600000125000802000000F32400080300000068
:10361000A524000804000000872B00080500000016
:10362000B32B0008060000009D2B000800040000DA
:10363000C125000801040000E32500080204000081
:10364000F7250008030400002125000804040000F9
:10365000C526000805040000312500080704000005
:1036600007260008080400001125000809040000CE
:10367000CF2500080A040000AF250008000800005C
:10368000C12C000801080000D32C0008020800002B
:10369000972C00080A0800007B2C0008010C000091
:1036A000A5290008020C00008D2A0008030C000068
:1036B000A7230008040C000001240008050C0000EA
:1036C000C9230008060C000061240008070C000054
:1036D0008F240008080C000033240008090C0000A7
:1036E000792400080A0C0000492400080C0C000092
:1036F000192400080D0C0000B92300080E0C00006E
:10370000F12900080F0C0000492A0008100C0000E5
:103710007B2A0008110C0000D9290008120C0000B7
:10372000C1290008130C00006F2B0008140C0000C6
:10373000CD2A0008150C00009D2A0008160C000078
:10374000F12A0008170C0000E12A0008180C0000FC
:10375000612A00087437000800000020840000007F
:1037600064230008F837000884000020140D0000CE
:1037700074230008000000000000000000000000AA
:103780000000000000000000000000000000000039
:103790000000000053544D3332463431315245203D
:1037A0004E75636C656F20426F61726420616E6458
:1037B00020426C75654E52472D320D0A0000000004
:1037C00000000000000000000000000000000000F9
:1037D00000000000010000001000000000000000D8
:1037E0000024F400000000000000000000000000C1
:0837F0000000000000000000D1
:040000050800019955
:00000001FF
